:10000000BEC00000D7C00000D5C00000D3C00000B3
:10001000D1C00000CFC00000CDC00000CBC00000A8
:10002000C9C00000C7C0000052C40000C3C0000027
:10003000C1C00000BFC00000BDC00000BBC00000C8
:10004000B9C0000037C10000B5C00000B3C0000057
:10005000B1C00000AFC00000ADC00000ABC00000E8
:10006000A9C00000C0C00000A5C00000A3C00000DF
:10007000A1C000009FC000009DC000009BC0000008
:1000800099C0000097C0000095C0000093C0000018
:1000900091C000008FC000008DC000008BC0000028
:1000A00089C0000087C0000085C000002403500004
:1000B0004F004B004B0045004E00200043004F0016
:1000C0004E00540052004F004C004C0045005200BE
:1000D00000001C0348004F0052004900200043006C
:1000E0004F002E002C004C00540044002E00000055
:1000F0000403090409022200010100C000090400F0
:10010000000103000000092111010001225600072F
:1001100005810340000512010002000000080D0FD8
:10012000920000010102000105010905A10115006D
:1001300025013500450175019510050919012910A2
:10014000810205012507463B0175049501651409E7
:1001500039814265009501810126FF0046FF0009B3
:10016000300931093209357508950481020600FF0E
:100170000920950181020A212695089102C01124C7
:100180001FBECFEFDAE0DEBFCDBF11E0A0E0B1E0EF
:10019000EEE8F1E102C005900D92A031B107D9F768
:1001A00021E0A0E1B1E001C01D92A833B207E1F760
:1001B00074D0EBC725CFF894809111019091120172
:1001C00001969093120180931101809111019091F9
:1001D0001201813D974028F01092120110921101F6
:1001E0005C9A789408951F920F920FB60F92112483
:1001F0002F933F934F938F939F93EF93FF9310927F
:100200001201109211015C983091CE00832F807FF3
:1002100089F420911001822F82958F7090E00097D1
:1002200049F02295207F432F4F70242BFC01EE5E76
:10023000FE4F208330931001FF91EF919F918F919A
:100240004F913F912F910F900FBE0F901F901895D7
:1002500084B7877F84BF0FB6F894A895809160001B
:10026000886180936000109260000FBE90E080E88B
:100270000FB6F89480936100909361000FBE8AB12D
:1002800080638AB98BB180638BB904D3A5D0E9ECC4
:10029000F0E08081806880830895579A5F9AD8DF64
:1002A0008BB180638BB9789480E091E098D637D594
:1002B00082DFFACF1F920F920FB60F9211240F9088
:1002C0000FBE0F901F9018955D9808955D9A5F98E6
:1002D000F89480E090E021E0FC01ED5EFE4F208389
:1002E000019688309105C1F77894089580E091E0F7
:1002F00063D69091E20094609093E200882319F015
:100300005F9A5D9808955F985D9A089580E091E006
:1003100020C580910E0190910F01009729F001975F
:1003200090930F0180930E0108950F931F93F894FB
:1003300088E0E3E1F1E0D90101900D928A95E1F7BF
:10034000789488E090E0F8019183808380E01F91A9
:100350000F9108950895292F332723303105E1F0B7
:1003600058F42130310599F02230310569F582E2E7
:1003700090E024EF30E02CC02132310501F122322F
:10038000310511F586E590E028E231E021C082E1F7
:1003900090E026E131E01CC099278130910549F0B9
:1003A00028F0029789F4ECEAF0E005C0E0EFF0E015
:1003B00002C0E2EDF0E0849190E09F0109C089E085
:1003C00090E026E031E004C080E090E020E030E002
:1003D000FA013183208308951092CD0080E180934B
:1003E000CC00E8ECF0E080818260808386E080933E
:1003F000CA0088E18093C9000895CF92DF92EF92FE
:10040000FF920F931F93CF93DF93EC018B017A013F
:10041000CED1811133C0E114F10439F0F7018081AC
:100420009181081B190BC80FD91FC12CD12C0115A4
:10043000110519F18091E80085FD16C08091E80052
:100440008E778093E8006BD4E114F10449F0F70152
:1004500080819181C80ED91ED182C08285E00EC0F4
:10046000A6D1882321F30AC089918093F10001501D
:100470001109FFEFCF1ADF0ADACF80E0DF91CF91C9
:100480001F910F91FF90EF90DF90CF9008952091F2
:100490003601309137012617370748F0611571058D
:1004A00039F42091E8002E772093E80001C0B901CB
:1004B000FC0120E06115710579F180912F018823FD
:1004C000F1F18530F1F18091E80083FD3CC080912D
:1004D000E80082FD2EC08091E80080FFEBCF2091E4
:1004E000F3008091F20090E0922B6115710551F0BC
:1004F0008830910538F421912093F1006150710901
:100500000196F3CF21E0089709F020E08091E80000
:100510008E778093E800CECF2111CFCF0AC0809193
:100520002F01882361F0853061F08091E80083FD20
:100530000AC08091E80082FFF2CF80E0089582E057
:10054000089583E0089581E008956115710529F407
:100550002091E8002B772093E800FC0161157105DC
:1005600041F180912F01882361F1853061F1809103
:10057000E80083FD24C08091E80082FFEFCF209146
:10058000F3008091F20090E0922B892B31F0809162
:10059000F10081936150710991F78091E8008B77A8
:1005A0008093E800DBCF80912F01882351F08530C4
:1005B00051F08091E80080FFF6CF80E0089581E05F
:1005C000089582E0089583E00895209136013091E6
:1005D00037012617370748F06115710539F4209166
:1005E000E8002E772093E80001C0B901FC0120E06B
:1005F0006115710591F180912F01882309F440C0A4
:10060000853009F43FC08091E80083FD3DC08091B2
:10061000E80082FD2FC08091E80080FFE9CF2091A3
:10062000F3008091F20090E0922B6115710559F072
:100630008830910540F424912093F1003196615067
:1006400071090196F2CF21E0089709F020E080912E
:10065000E8008E778093E800CBCF2111CCCF0AC081
:1006600080912F01882361F0853061F08091E8004E
:1006700083FD0AC08091E80082FFF2CF80E00895F8
:1006800082E0089583E0089581E00895982F9730DF
:1006900068F59093E900981739F07091EC0020917B
:1006A000ED005091F00003C0242F762F50E021FD83
:1006B00002C09F5FECCF3091EB003E7F3093EB00A8
:1006C0003091ED003D7F3093ED003091EB003160D3
:1006D0003093EB007093EC002093ED005093F0000A
:1006E0002091EE0027FDE5CF80E008958F70809384
:1006F000E90081E008950F931F93CF93DF93062FB6
:10070000EC0110E0101771F16881611103C01F5FE7
:100710002596F8CF2C81A981BA819B81862F8F7075
:10072000873010F080E01FC0223010F442E001C09A
:1007300046E0E8E0F0E020E0EA17FB0720F42F5F56
:10074000EE0FFF1FF9CF2295207F422B50E4959F9B
:1007500090011124661F6627661F622B97DF8111A7
:10076000D6CFE0CF81E0DF91CF911F910F91089517
:100770008091300187FF11C08091E80082FD05C0A3
:1007800080912F018111F8CF11C08091E8008B7703
:100790000BC080912F01882349F08091E80080FFF1
:1007A000F8CF8091E8008E778093E800089520913B
:1007B000E4003091E50095E64091EC00842F8170D3
:1007C00040FF23C08091E80080FD1DC080912F0173
:1007D000882399F0853099F08091EB0085FD11C058
:1007E0004091E4005091E5002417350729F391501A
:1007F00011F09A01E1CF84E0089582E0089583E04A
:10080000089581E0089580E008954091E80042FF56
:10081000DDCF08950F931F93CF93DF934BD052D02A
:10082000C8EDD0E088818F7788838881806888834D
:1008300088818F7D888319BC10922F0110922B0123
:1008400010922D0110922C0100EE10E0F801808131
:100850008B7F808388818160888342E060E080E0D4
:1008600015DFE1EEF0E080818E7F8083E2EEF0E044
:10087000808181608083808188608083F8018081AD
:100880008E7F8083888180618883DF91CF911F91E3
:100890000F910895E8EDF0E080818F7E8083E7ED91
:1008A000F0E080818160808384E082BF81E080937A
:1008B0002E01B0CFE8EDF0E080818E7F8083109232
:1008C000E20008951092DA001092E10008951F925C
:1008D0000F920FB60F9211242F933F934F935F9374
:1008E0006F937F938F939F93AF93BF93EF93FF93F8
:1008F0008091E10082FF0AC08091E20082FF06C081
:100900008091E1008B7F8093E10003DD8091DA002C
:1009100080FF1DC08091D80080FF19C08091DA004F
:100920008E7F8093DA008091D90080FF0CC080E137
:1009300089BD82E189BD09B400FEFDCF81E08093CD
:100940002F01C2DC04C019BC10922F01BFDC8091C2
:10095000E10080FF18C08091E20080FF14C0809108
:10096000E2008E7F8093E2008091E20080618093BC
:10097000E2008091D80080628093D80019BC85E0A5
:1009800080932F01CBD18091E10084FF2FC0809113
:10099000E20084FF2BC080E189BD82E189BD09B4FA
:1009A00000FEFDCF8091D8008F7D8093D80080918C
:1009B000E1008F7E8093E1008091E2008F7E809342
:1009C000E2008091E20081608093E20080912B013F
:1009D000882311F084E007C08091E30087FD02C006
:1009E00081E001C083E080932F0198D18091E100E4
:1009F00083FF22C08091E20083FF1EC08091E1004E
:100A0000877F8093E10082E080932F0110922B0179
:100A10008091E1008E7F8093E1008091E2008E7FE3
:100A20008093E2008091E20080618093E20042E0E6
:100A300060E080E02BDE72D1FF91EF91BF91AF912A
:100A40009F918F917F916F915F914F913F912F91E6
:100A50000F900FBE0F901F9018951F93CF93DF93A9
:100A6000CDB7DEB7AA970FB6F894DEBF0FBECDBFE5
:100A7000E0E3F1E08091F100819321E0E833F207B7
:100A8000C9F744DC8091E80083FF30C180913001D8
:100A900090913101953009F483C030F49130A9F17F
:100AA00068F0933091F122C1983009F4EFC0993089
:100AB00009F4FBC0963009F019C194C0803821F0C8
:100AC000823809F013C108C080912C0190912D014A
:100AD000992389F082600FC0809134018F70873034
:100AE00008F004C18093E9008091EB0085FB882722
:100AF00080F91092E9009091E800977F9093E800C8
:100B00008093F1001092F100CCC0282F2D7F09F0C6
:100B1000EDC0882319F0823061F0E8C08091320185
:100B2000813009F0E3C0933009F080E080932D011B
:100B30002EC08091320181112AC0809134018F70C2
:100B40002FEF280F263008F0D1C08093E9002091C4
:100B5000EB0020FF1CC0933021F48091EB008062F9
:100B600014C09091EB0090619093EB0021E030E095
:100B7000A90102C0440F551F8A95E2F74093EA008D
:100B80001092EA008091EB0088608093EB00109255
:100B9000E9008091E800877F8093E800E9DDA6C046
:100BA0008111A4C0109132011F778091E3008078F9
:100BB000812B8093E3008091E800877F8093E80099
:100BC000D7DD8091E80080FFFCCF8091E300806852
:100BD0008093E300111102C082E001C083E08093A2
:100BE0002F0184C08058823008F080C0809132018B
:100BF000909133018C3D53E0950771F583E08A8332
:100C00008AE289834FB7F894DE01139620E03EE034
:100C100051E2E32FF0E050935700E49120FF03C02E
:100C2000E295EF703F5FEF708E2F90E0EA3010F0AA
:100C3000C79601C0C0968D939D932F5F243149F7CD
:100C40004FBF8091E800877F8093E8006AE270E000
:100C5000CE0101961CDC14C0609134017091350105
:100C6000AE014F5F5F4F77DBBC01892B09F43EC0BB
:100C70009091E800977F9093E80089819A81A5DCA4
:100C80008091E8008B778093E80030C0803871F560
:100C90008091E800877F8093E80080912B0180930A
:100CA000F1008091E8008E7777CF81111FC080918D
:100CB00032019091330199270297C4F48091E800A2
:100CC000877F8093E8008091320180932B0150DD73
:100CD00080912B01811106C08091E30087FD02C045
:100CE00081E001C084E080932F0100DB8091E80067
:100CF00083FF0AC08091E800877F8093E80080919D
:100D0000EB0080628093EB00AA960FB6F894DEBFEA
:100D10000FBECDBFDF91CF911F9108950895CF935E
:100D200080912F01882399F0C091E900CF709091B4
:100D3000EC00892F817090FD80E8C82B1092E900AB
:100D40008091E80083FD89DECF70C093E900CF91E8
:100D500008956F927F928F929F92AF92BF92CF929F
:100D6000DF92EF92FF920F931F93CF93DF9300D008
:100D70001F92CDB7DEB77C01ADB6BEB68091E8005C
:100D800083FF03C1F701808190E02091340130910D
:100D900035012817390709F0F8C0809131018330F7
:100DA00009F49AC030F4813071F0823009F4D1C076
:100DB000ECC08A3009F4B5C08B3009F49EC089308C
:100DC00009F0E3C04CC080913001813A09F0DDC0E8
:100DD0008DB69EB61A82198280913201109133012C
:100DE0008B83F7018085482F50E08DB79EB7841B19
:100DF000950B0FB6F8949EBF0FBE8DBFEDB7FEB733
:100E000031966F0160E070E0CF01B8D14FEF410F34
:100E10008E010F5F1F4F9601BE016D5F7F4FC701AF
:100E200084DAF70186819781009721F0408550E0B0
:100E3000B6019BD11092E9008091E800877F8093F2
:100E4000E8008B8181118093F10069817A81C6016C
:100E50001EDB8091E8008B778093E80037C080919B
:100E60003001813209F091C08DB69EB600913601F5
:100E70001091370170903201609033018DB79EB7A9
:100E8000801B910B0FB6F8949EBF0FBE8DBFEDB7C0
:100E9000FEB731966F018091E800877F8093E8006C
:100EA000B801CF0152DB8091E8008E778093E80093
:100EB00021E0711001C020E030E0021B130B2C0D6B
:100EC0003D1D4FEF460D672DC70144DA0FB6F8946C
:100ED0009EBE0FBE8DBE59C080913001813A09F08F
:100EE00054C08091E800877F8093E8008091E800FB
:100EF00080FFFCCFF701818540C0809130018132B5
:100F000009F043C08091E800877F8093E80030DCDF
:100F10009091320181E0911101C080E0F701818759
:100F200034C080913001813281F58091E800877F63
:100F30008093E8001DDC8091320190913301882775
:100F400036E0969587953A95E1F7F701958784877E
:100F50001CC080913001813AC1F48091E800877F04
:100F60008093E8008091E80080FFFCCFF701848542
:100F7000958596958795969587958093F1008091B4
:100F8000E8008E778093E800F3DB0FB6F894BEBEDE
:100F90000FBEADBE0F900F900F90DF91CF911F91BC
:100FA0000F91FF90EF90DF90CF90BF90AF909F9008
:100FB0008F907F906F900895FC01399627E0DF01B4
:100FC0001D922A95E9F721E0FC01218724EF31E009
:100FD0003587248723E0248361E001968CCB5F92E0
:100FE0006F927F928F929F92AF92BF92CF92DF9239
:100FF000EF92FF920F931F93CF93DF9300D01F9236
:10100000CDB7DEB77C01ADB6BEB680912F0184307E
:1010100009F086C08091E4009091E500F7012285F7
:1010200033852817390709F47BC081818F7080933D
:10103000E9008091E80085FF73C08DB69EB64085BB
:1010400050E08DB79EB7841B950B0FB6F8949EBFEA
:101050000FBE8DBFEDB7FEB731966F011B821A82AE
:10106000198260E070E0CF0189D08E010F5F1F4FC1
:10107000960140E0BE016D5F7F4FC70156D9582EE3
:10108000F70184859585892B29F011E08685978560
:10109000892B09F010E0F7016680778061147104F4
:1010A00081F049815A81B301C60152D001E0892BF8
:1010B00009F400E0F701408550E0B601C30155D0C6
:1010C00001C000E089819A81892BF1F0511004C0A0
:1010D000011102C010FF18C0F7018485958597871C
:1010E000868781818F708093E9008B818111809345
:1010F000F10069817A8140E050E0C6017ED980919B
:10110000E8008E778093E8008091E4009091E500FC
:10111000F701938782870FB6F8949EBE0FBE8DBEEF
:101120000FB6F894BEBE0FBEADBE0F900F900F90DD
:10113000DF91CF911F910F91FF90EF90DF90CF90B3
:10114000BF90AF909F908F907F906F905F90089529
:10115000FB01DC0104C08D910190801921F4415004
:101160005040C8F7881B990B0895FB01DC0102C0B1
:1011700001900D9241505040D8F70895DC0101C014
:0E1180006D9341505040E0F70895F894FFCF72
:10118E000081400000011B0108000000000000006B
:00000001FF
